:100000000C94ED000C940A010C940A010C940A0162
:100010000C940A010C9479040C940A010C940A01C2
:100020000C940A010C940A010C940A010C940A0124
:100030000C940A010C940A010C940A010C940A0114
:100040000C94B40D0C940A010C940A010C940A014E
:100050000C94D00C0C948E0C0C940A010C940A0194
:100060000C940A010C940A010C940A010C940A01E4
:100070000C940A010C940A010C940A0150726573E5
:1000800073206120627574746F6E20746F207374B6
:1000900061727420616761696E0047414D45204F70
:1000A0005645520043535345323031302F373230AA
:1000B000312070726F6A65637420627920596F6EA7
:1000C000677A6869205A484F5520343532323938BA
:1000D000343800537061636520496D70616374004A
:1000E0004B014801440140013C0138013401300119
:1000F0002C012801BA01B601B201AE01AA01A60184
:10010000A2019E019B01970193018F018A01860143
:1001100082017E017901750171016C016801630141
:100120005E01590154014F016492927D6C92926D6F
:10013000809EA0C17C92924DE4A2A29D182848FF07
:100140004492926D468A926342FE037C92A27D861F
:100150008A92A2C3E0100E10E1C6281028C7FC0244
:100160001C02FDF8040204F9FC0202FD8080FE80FE
:10017000816492924DFE9098677C828A7C03FE9007
:1001800090617C82827DFE2010FFFE403040FFFEA9
:10019000020203FE1028C7040202FD82FE83FE1045
:1001A00010FF7C82925DFE909081FE929283FE828F
:1001B000827D7C828245FE92926D7E90907F1B5B59
:1001C0003F32356C001B5B25646D001B5B324A00BF
:1001D0001B5B25643B256448000011241FBECFEF44
:1001E000D8E0DEBFCDBF11E0A0E0B1E0E0E1F4E295
:1001F00002C005900D92AA37B107D9F722E0AAE70D
:10020000B1E001C01D92AF3FB207E1F70E94D308F1
:100210000C9406120C9400001F93CF93DF93E82FE9
:10022000F0E0E158FE4FD081CD2FC295CF70DF7046
:1002300040E06D2F8C2F0E94BC0511E01D0F40E0A7
:10024000612F8C2F0E94BC05CF5F40E06D2F8C2F5B
:100250000E94BC0540E0612F8C2F0E94BC05DF91FD
:10026000CF911F910895CF93C82F0E940C01209128
:1002700084012150C217A1F08C2F90E0422F50E052
:10028000FA01E158FE4F3081FC01E158FE4F308306
:10029000FA01E658FE4F3081FC01E658FE4F3083EC
:1002A000E22FF0E0E158FE4F8FEF8083209384012E
:1002B000CF9108951F93CF93DF93E82FF0E0E1589B
:1002C000FE4FD081CD2FC295CF70DF704FE06D2FE4
:1002D0008C2F0E94BC0511E01D0F4FE0612F8C2F69
:1002E0000E94BC05CF5F4FE06D2F8C2F0E94BC0594
:1002F0004FE0612F8C2F0E94BC05DF91CF911F91A1
:100300000895109284010895FF920F931F93CF9345
:10031000DF939091840191111EC08FEF25C041E0C1
:100320006C2FF80180810E949D058F1102C08D2FD6
:100330001BC0CF5FC23049F040E06C2FF8018081D4
:100340000E949D058F11EBCFF2CFDF5F809184017A
:10035000D81718F008C0F82ED0E0C0E00D2F10E03C
:1003600001581E4FE9CF8FEFDF91CF911F910F9171
:10037000FF9008950E94840191E08F3F09F490E07E
:10038000892F0895EF92FF920F931F93CF93DF93DE
:1003900000D01F92CDB7DEB700918401053009F47B
:1003A00056C01A828A818F708983182F106D8A81B6
:1003B0008F5F8A83812F0E940B05811142C0898142
:1003C000806E8B830E940B0581113BC08A818F70E8
:1003D0008983806DE82E0E940B05811132C08981CE
:1003E000806EF82E0E940B0581112BC0812F0E9478
:1003F000BA01811126C08B810E94BA01811121C0EE
:100400008E2D0E94BA0181111CC08F2D0E94BA014D
:10041000811117C0802F90E0FC01E158FE4F10833E
:10042000FC01E658FE4F2AE02083809184018F5F13
:1004300080938401802F0E945A010E946506802FBC
:1004400007C08A81873009F0ADCF8FEF01C08FEFF1
:100450000F900F900F90DF91CF911F910F91FF9010
:10046000EF9008950F931F93CF93DF93082F162FCC
:10047000862F0E94BC09C02FD0E0C658DE4F88816D
:100480008150888381E090E00E94850A8881181657
:1004900044F085E090E00E94850A802F0E9433019D
:1004A00008C0612F6F7043E1812F82958F700E9489
:1004B000BC05DF91CF911F910F910895DF92EF92CC
:1004C000FF920F931F93CF93DF93D82FC62F0E94D5
:1004D0000C010D2F10E0F801E158FE4FC0838D2F65
:1004E0000E945A0141E060E08C2F0E949D05F82E89
:1004F0000E94B605D82E8C2F0E94B605E82E8C2FB0
:100500000E946109882321F06C2F8D2F0E943202F6
:10051000F801E158FE4F8081C81327C08F2D0E943B
:100520006109882321F06F2D8D2F0E943202F8017E
:10053000E158FE4F8081C81318C08D2D0E946109BB
:10054000882321F06D2D8D2F0E943202F801E15891
:10055000FE4F8081C81309C08E2D0E946109882337
:1005600021F06E2D8D2F0E9432020E946506DF91D0
:10057000CF911F910F91FF90EF90DF900895EF9230
:10058000FF920F931F93CF93DF93F82EE82FF0E0A5
:10059000E158FE4F8081C82FC295CF7029F48F2D6E
:1005A0000E94330101E02DC0182F1F70C15080E15F
:1005B000C89FE0011124EC2EE12A8E2D0E940B052C
:1005C000082F81111BC081E0810F8F70C82B8C2FE9
:1005D0000E940B05D82F811114C08E2D0E94BA01E4
:1005E000082F81110DC08C2F0E94BA01811109C002
:1005F0006E2D8F2D0E945E0201E003C000E001C05D
:100600000D2F802FDF91CF911F910F91FF90EF90D1
:1006100008953F924F925F926F927F928F929F9236
:10062000AF92BF92CF92DF92EF92FF920F931F9300
:10063000CF93DF9380918401882309F4D2C00E9474
:10064000920E6091840170E00E94DD0D782E482E9C
:100650000F2EF3E0CF2ED12CF02D0F2EFBEA9F2E84
:10066000F02D812C0E94920EB6010E94DD0DC82F44
:1006700099278C010D5F1F4F801791070CF0A6C0C2
:10068000842D90E09C0121583E4F7901C99D912D08
:1006900011249695892F880F980F8C2F891B8130F4
:1006A00049F020F0823009F446C07FC0842D0E94BA
:1006B000BF027CC0F7018081D82FDF70D63009F4EB
:1006C00077C082958F70A82EB12CC5018295929526
:1006D000907F9827807F9827382E92E09D0F9F70FB
:1006E000592E692E682A862D0E940B05811160C043
:1006F000FFEFAF1ABF0AAA0CBB1CAA0CBB1CAA0CAA
:10070000BB1CAA0CBB1CA5288A2D0E940B058111BD
:100710004FC0862D0E94BA0181114AC08A2D0E94C5
:10072000BA01811145C061E06D0F6F706329842D9E
:100730000E945E0245C0F7019081892F8F70C1F140
:1007400092959F70A92EB12C8150D82FDF70C501D2
:1007500082959295907F9827807F98275D2E582AC2
:10076000852D0E940B05811123C0FFEFAF1ABF0A30
:10077000AA0CBB1CAA0CBB1CAA0CBB1CAA0CBB1C45
:10078000AD2A8A2D0E940B05811112C0852D0E9471
:10079000BA0181110DC08A2D0E94BA01811108C0D1
:1007A000652D842D0E945E020BC0882D811108C02A
:1007B000CF5F8C2F90E0801791070CF467CF06C0B5
:1007C0002FEF421671F00E9465060BC0842D90E059
:1007D00001966091840170E00E94DD0D482E781230
:1007E00041CFDF91CF911F910F91FF90EF90DF905C
:1007F000CF90BF90AF909F908F907F906F905F90C1
:100800004F903F9008950F931F93CF93DF93809164
:100810008401882371F110E0E12FF0E0E158FE4FF0
:10082000C0810C2F0F70C295CF70D0E02296C29578
:10083000D295D07FDC27C07FDC278C2F802B0E94B5
:100840000B05811108C081E0800F8F708C2B0E94F6
:100850000B05882349F0812F0E94BF02811104C03B
:10086000812F0E94330111501F5F8091840118175E
:1008700098F2DF91CF911F910F910895E8E6F0E093
:10088000808182608083D99AECE6F0E080818F607D
:1008900080831092850108958091850118163CF59A
:1008A000809186016FB7F894909185019230B4F0F1
:1008B00021E030E091E0F901EA57FE4F4081F90173
:1008C000EB57FE4F40839F5F292F30E04091850119
:1008D000042E000C550B241735076CF390918501FD
:1008E00091509093850166231CF4789408958FEFBE
:1008F00008951F920F920FB60F9211242F933F93DA
:100900004F935F936F937F938F939F93EF93FF9397
:1009100043B14F7080E090E0642F70E0209185013A
:10092000243004F59B01082E02C0359527950A94C2
:10093000E2F720FF17C020918A0130E0082E02C0A4
:10094000359527950A94E2F720FD0CC0E0918501CA
:1009500021E02E0F209385010E2E000CFF0BEA578D
:10096000FE4F8083019684309105C1F640938A0141
:10097000FF91EF919F918F917F916F915F914F9137
:100980003F912F910F900FBE0F901F9018950F93CE
:100990001F93CF93DF93CDB7DEB728970FB6F894A8
:1009A000DEBF0FBECDBF10928B010E94FF0510E08D
:1009B00000EFE0918B01E10FEF71F0E0EC5EFE4F94
:1009C0004081FE01319680E090E050E09A01082ECF
:1009D00002C0359527950A94E2F720FF02C00083F4
:1009E00001C01082019631968830910579F7BE01D9
:1009F0006F5F7F4F812F0E94DB051F5F1031C9F6AB
:100A000028960FB6F894DEBF0FBECDBFDF91CF9111
:100A10001F910F910895E82FE295EF7090918B014F
:100A2000E90FEF71F0E0EC5EFE4F208130E08F7057
:100A3000A90102C0559547958A95E2F7CA018170D0
:100A400008959F92AF92BF92CF92DF92EF92FF9262
:100A50000F931F93CF93DF930E94030480918B0128
:100A60008F5F803209F058C010928B0157C0EC2C78
:100A700080918B018C0DEFEFE80F12F4EFE1E80F9E
:100A8000EF791CF4E150E06EEF5F0E2E000CFF0BCF
:100A9000EC5EFE4F00818F71E82FF0E0EC5EFE4FC0
:100AA000A0809C2C990C990C990C990CC0E0D0E07A
:100AB0000A2510E0B12CC8010C2E02C0959587952F
:100AC0000A94E2F780FF19C0C5010C2E02C095956B
:100AD00087950A94E2F780FF0BC08C2F8F708929CD
:100AE0000E94BC0940EF6C2F8E2D0E94BC0505C0F2
:100AF00040E06C2F8E2D0E94BC052196C830D10598
:100B0000D1F68FEFC81AD80A20E1C216D10409F035
:100B1000AECF0E94650605C080938B01C12CD12CFD
:100B2000A6CFDF91CF911F910F91FF90EF90DF90B3
:100B3000CF90BF90AF909F90089583FD11C0282F54
:100B400022952F70620F603168F48F70840F8830A7
:100B500058F490E16902900111248F70822B08955E
:100B60008FEF08958FEF08958FEF0895805F0895B8
:100B700080E80E94230D08951F93CF93DF93803167
:100B8000B0F46830A0F4142FC62FD82F81E00E9453
:100B90004B0D6C2F677080E1689F900111248D2FA1
:100BA0008F70822B0E944B0D812F0E944B0DDF9185
:100BB000CF911F9108950F931F93CF93DF938031AF
:100BC00090F48B01C82F83E00E944B0D8C2F8F7007
:100BD0000E944B0DE801085F1F4F89910E944B0D49
:100BE000C017D107D1F7DF91CF911F910F910895D1
:100BF00084E00E944B0D82E00E944B0D08958FE02F
:100C00000E944B0D0895CF93DF93C0918D01DC2F8F
:100C1000D295DF70CF7040E06C2F8D2F0E94BC0505
:100C200040E06C2F81E08D0F0E94BC05DF91CF91D9
:100C3000089565E170E08EE190E00E94510D84E33B
:100C400091E09F938F938AE391E09F938F930E940B
:100C5000E00E66E170E08EE190E00E94510D1F927F
:100C600084E08F938FE391E09F938F930E94E00E37
:100C70008DB79EB708960FB6F8949EBF0FBE8DBF76
:100C8000089580918D01089580918C010895CF93EE
:100C9000DF93C0918D01DC2FD295DF70CF704FEDC7
:100CA0006C2F8D2F0E94BC054FED6C2F81E08D0FB6
:100CB0000E94BC05DF91CF91089584E080938D015F
:100CC00010928C010E9447060895CF9380918D0168
:100CD0000E94B605C82F80918D010E940B058111DD
:100CE00010C08C2F0E940B0581110BC080918D01CB
:100CF0000E94BA01811105C08C2F0E94BA0188237D
:100D000029F081E080938C010E944706CF910895DD
:100D100080918D018F708730B9F00E940306909109
:100D20008D01892F807F9F5F9F70892B80938D011C
:100D30000E94BC0980918D010E94B6050E94BC09E9
:100D40000E9465060E944706089580918D018F706C
:100D5000B9F00E94030690918D01892F807F9150F8
:100D60009F70892B80938D010E94BC0980918D0119
:100D70000E94B6050E94BC090E9465060E944706B3
:100D8000089580918D0182958F7009F10E9403066C
:100D900080918D01982F92959F70292F30E02150DE
:100DA000310922953295307F3227207F32278F708C
:100DB000822B80938D010E94BC0980918D010E943D
:100DC000B6050E94BC090E9465060E944706089568
:100DD00080918D0182958F708E3009F10E940306FB
:100DE00080918D01982F92959F70292F30E02F5F71
:100DF0003F4F22953295307F3227207F32278F70E8
:100E0000822B80938D010E94BC0980918D010E94EC
:100E1000B6050E94BC090E9465060E944706089517
:100E20000E94B8050E943E0440E060E076E980E060
:100E300090E00E943B0C0E94900D7894089580E011
:100E40000E946B0D0E94620D0E94780D63E070E0BD
:100E500083E090E00E94510D83ED90E09F938F938B
:100E60000E94F60E65E070E083E090E00E94510D74
:100E700080E20E946B0D84EA90E09F938F930E9422
:100E8000F60E85E20E946B0D0E94FF050F900F90F9
:100E90000F900F906CE384E491E00E94040B0DC06E
:100EA0002FE78CE293E0215080409040E1F700C0B2
:100EB00000000E944C048F3F29F40E94130B811103
:100EC000EFCFE8CF08950E94C7040E9481010E94DD
:100ED00002090E945D060E94620D0E94760A0E942D
:100EE00019060E944C040E94890C2FEF84E39CE0B9
:100EF000215080409040E1F700C0000008952F92FB
:100F00003F924F925F926F927F928F929F92AF9299
:100F1000BF92CF92DF92EF92FF920F931F93CF93E6
:100F2000DF93CDB7DEB72A970FB6F894DEBF0FBEBA
:100F3000CDBF0E94A60D4B015C012B013C016D83CE
:100F40007E838F83988769837A838B839C830FEF5B
:100F500010E00F2EF8E52F2EF2E03F2EF02D20E0CE
:100F60002A87CDC00E944C0489878F3F09F0D3C0E7
:100F70000E94820C882309F44BC0E9EFF2E08081E3
:100F800091810E94A20EFA85F11103C08B3151F4B8
:100F9000BCC02A85213019F48B3521F4B9C03A85BB
:100FA000323031F0803281F41A870E947D0930C0DE
:100FB000843421F40E94C1061A872AC0833451F474
:100FC0000E94E8061A8724C04985442341F0982FDF
:100FD000802F01C0902F823431F41A8701C01A8704
:100FE0000E94A50615C01A875985513011F0813429
:100FF00019F40E9488060CC08985823049F09F7DD3
:10100000903519F40E94810D03C09E3409F48DC0FF
:101010000E94A60D6B017C010E94440681116FC0E5
:101020000E94010B682F70E0C1010E94DD0DCB0111
:10103000770FAA0BBB0B880D991DAA1DBB1DC816E7
:10104000D906EA06FB0620F00E9421054601570159
:101050000E94010B682F70E088EE93E00E94DD0D86
:10106000CB01770FAA0BBB0B29813A814B815C81A5
:10107000820F931FA41FB51F8C159D05AE05BF05DC
:1010800030F40E94C201C982DA82EB82FC820E94A3
:10109000010B682F70E080E991E00E94DD0DCB012B
:1010A000770FAA0BBB0B2D813E814F815885820F94
:1010B000931FA41FB51F8C159D05AE05BF0530F409
:1010C0000E940903CD82DE82EF82F8860E94010B26
:1010D000682F70E08CE291E00E94DD0DCB01770F6C
:1010E000AA0BBB0B840D951DA61DB71D8C159D0568
:1010F000AE05BF0520F40E940509260137010E94B4
:101100004406882309F42ECF10C031E03A8780CFFF
:1011100042E04A877DCF5985533009F446CF5523A5
:1011200009F45ECF802F902F5FCF2A960FB6F894E8
:10113000DEBF0FBECDBFDF91CF911F910F91FF900A
:10114000EF90DF90CF90BF90AF909F908F907F9067
:101150006F905F904F903F902F9008950E944406AB
:10116000811120C06EE070E08AE090E00E94510D95
:101170008AE990E09F938F930E94F60E6FE070E0F3
:101180008AE090E00E94510D8CE790E09F938F934E
:101190000E94F60E0F900F900F900F900E944C043B
:1011A0008F3FE1F308950E9410070E941F070E94DD
:1011B00063070E947F070E94AE08F9CF1F93CF9369
:1011C000DF93182FC82FD0E0FE01E257FE4F808139
:1011D000682F6F7040E082958F700E94BC058091EF
:1011E000CE018150181741F0E82FF0E0E257FE4F92
:1011F0009081C257DE4F98838093CE01DF91CF91CB
:101200001F9108951092CE010895EF92FF920F93CF
:101210001F93CF93DF93C0E048C0EC2EF12C8701E1
:1012200002571E4FF80180810E94B605D82FF801A1
:10123000808182958F708F3021F48C2F0E94DE0880
:1012400034C08D2F0E940B05882321F08C2F0E9423
:10125000DE082BC08D2F0E9484018F3F39F06D2F47
:101260000E9432028C2F0E94DE081FC00E9441069D
:10127000D81304C08C2F0E94DE0817C087010257C4
:101280001E4FF8018081682F6F7040E082958F704B
:101290000E94BC05F801D0836D2F6F704CE38D2F39
:1012A00082958F700E94BC05CF5F8091CE01C817D8
:1012B00008F4B3CFDF91CF911F910F91FF90EF9082
:1012C00008952091CE012223B1F090918E018917CB
:1012D00079F0EFE8F1E0215030E021573E4F03C0B4
:1012E0009191981739F0E217F307D1F720E003C086
:1012F00021E001C021E0822F0895CF93DF930E9467
:101300004106C82FC295CF70CE3099F10E94410698
:1013100040E062E00E949D05D82F0E940B058111DC
:1013200028C08D2F0E946109811123C0CD3038F46F
:101330008D2F0E94B6050E94610981111AC08D2F60
:101340000E9484018F3F19F06D2F0E943202E091BC
:10135000CE0181E08E0F8093CE01F0E0E257FE4F88
:10136000D0836D2F6F704CE38D2F82958F700E940C
:10137000BC05DF91CF9108953091CE013323A1F0C8
:1013800090918E0189130AC004C02191281309C0CD
:1013900001C090E0892F0E94DE080895EFE8F1E097
:1013A00090E09F5F9313F1CF0895E091E401EF5F28
:1013B000E093E401E770F0E0EF58FE4F60818DE4C8
:1013C00091E00E94040B08C08BE792E90197F1F7C6
:1013D00000C000000E944C040E94130B8111F4CF46
:1013E0009FE32DE083E0915020408040E1F700C072
:1013F00000000E94470608950F931F93CF93DF9339
:1014000060E170E088E290E00E94510D85E691E095
:101410009F938F9306E511E01F930F930E94E00EB8
:1014200061E170E088E290E00E94510DE0EEF1E0B1
:1014300081818F9380818F93CBE5D1E0DF93CF9330
:101440000E94E00E62E170E088E290E00E94510D9F
:1014500080E691E09F938F931F930F930E94E00E7D
:1014600063E170E088E290E00E94510DEFECF1E062
:1014700081818F9380818F93DF93CF930E94E00EC1
:101480008DB79EB740960FB6F8949EBF0FBE8DBF26
:10149000DF91CF911F910F91089564E170E088E290
:1014A00090E00E94510D8BE691E09F938F9386E52B
:1014B00091E09F938F930E94E00E65E170E088E2D7
:1014C00090E00E94510D8091E4011F928F938BE573
:1014D00091E09F938F930E94E00E8DB79EB7089680
:1014E0000FB6F8949EBF0FBE8DBF08951092E00115
:1014F0001092E1011092E2011092E3011092E401D6
:101500000E94FC090E944D0A08954F925F926F92CB
:101510007F928F929F92AF92BF92CF92DF92EF9283
:10152000FF92CF93DF93EC018090E0019090E10176
:10153000A090E201B090E301209104012C9FC00132
:101540002D9F900D1124A5019401280F391F411DD5
:10155000511DCA01B9010F2EF4E6CF2ED12CE12C7A
:10156000F12CF02DA70196010E94F10D2B013C01F9
:10157000C501B401A70196010E94F10D4616570658
:101580006806790610F40E94D5098091E0019091D7
:10159000E101A091E201B091E3018C0F9D1FA11D1B
:1015A000B11D8093E0019093E101A093E201B0931B
:1015B000E3014091CF015091D0016091D101709130
:1015C000D201481759076A077B0740F48093CF017F
:1015D0009093D001A093D101B093D2010E94FC0955
:1015E0000E944D0ADF91CF91FF90EF90DF90CF9056
:1015F000BF90AF909F908F907F906F905F904F9033
:101600000895809104010895609305019093D70196
:101610008093D6011092D9011092D8011092D50171
:101620001092D40108950F931F93CF93DF93CDB7FA
:10163000DEB728970FB6F894DEBF0FBECDBFE0919E
:10164000D801F091D901309781F0149110FF06C0B4
:101650001092D9011092D80100E06BC03196F0933E
:10166000D901E093D80100E064C0E091D401F09189
:10167000D501309709F449C0CF0101969093D50167
:101680008093D401E081E1110AC01092D50110923B
:10169000D40180E18093D30100E010E04AC08FE9DB
:1016A0008E0F8A3170F4F0E0EE0FFF1FEE5CFF4FFB
:1016B000859194919093D9018093D80100E010E036
:1016C00038C08FEB8E0F8A3170F4F0E0EE0FFF1F01
:1016D000EE58FF4F859194919093D9018093D80152
:1016E00000E010E026C080ED8E0F8A3000F5F0E0BB
:1016F000EE0FFF1FE058FF4F859194919093D90111
:101700008093D80100E010E014C08091D601909140
:10171000D70101E0009709F000E09093D501809394
:10172000D4011092D7011092D60110E002C000E05F
:1017300010E00E94F80520910501FE013896CE01C7
:101740000196112314F4208301C01082110F3197E8
:10175000E817F907B1F71982BE016F5F7F4F8FE07D
:101760000E94DB058091D301882389F0815080930A
:10177000D301002311F0882311F090E003C091E021
:1017800001C091E081E0992329F080E003C00023AB
:10179000A1F3F7CF28960FB6F894DEBF0FBECDBFEA
:1017A000DF91CF911F910F910895CF93C82F8A3069
:1017B00019F48DE00E94D50B9FB7907802C0992351
:1017C00029F18091E6018F3FD1F3F894E091E50192
:1017D00081E08E0F8093E501F0E0E951FE4FC08378
:1017E0008091E6018F5F8093E6018091E5018F3F54
:1017F00011F41092E501E1ECF0E0808180628083D9
:10180000992339F0789480E090E005C081E090E081
:1018100002C080E090E0CF9108958091F802882383
:10182000E1F32FB72078F8948091E6023091F80226
:1018300090E0831B91095AF4E091E6028091F8024E
:10184000F0E0E81BF109E950FD4F80810AC0E0910A
:10185000E6028091F802F0E0E81BF109E951FD4F42
:1018600080819091F80291509093F802222309F020
:10187000789490E008951092E5011092E60110929C
:10188000E6021092F8021092F7024093DA01DC01AE
:10189000CB01880F991FAA1FBB1F880F991FAA1F72
:1018A000BB1F9C01AD01220F331F441F551F60E079
:1018B00072E18AE790E00E94130EBA01A9014F5F1E
:1018C0005F4F6F4F7F4FDB01CA011AF40196A11DD4
:1018D000B11DB595A7959795879501979093C500EC
:1018E0008093C400E1ECF0E088E18083808180682F
:1018F0008083E9EFF2E086E091E093838283918335
:10190000808308959091F80281E0911101C080E0F8
:1019100008951092E6021092F80208951F920F9215
:101920000FB60F9211242F938F939F93EF93FF93F2
:101930008091E601882329F18091E5012091E6015B
:1019400090E0821B91095AF4E091E5018091E60153
:10195000F0E0E81BF109EA51FD4F90810AC0E091E7
:10196000E5018091E601F0E0E81BF109E951FE4F45
:1019700090818091E60181508093E6019093C600AA
:1019800005C0E1ECF0E080818F7D8083FF91EF91D5
:101990009F918F912F910F900FBE0F901F901895D0
:1019A0001F920F920FB60F9211242F933F934F93D4
:1019B0005F936F937F938F939F93AF93BF93CF93D7
:1019C000EF93FF93C091C6008091DA01882349F01C
:1019D0008091E6018F3F29F060E070E08C2F0E943B
:1019E000D50B8091F802803120F081E08093F702DE
:1019F00018C0CD3009F4CAE0E091E60281E08E0F14
:101A00008093E602F0E0E951FD4FC0838091F80237
:101A10008F5F8093F8028091E602803111F410927A
:101A2000E602FF91EF91CF91BF91AF919F918F917E
:101A30007F916F915F914F913F912F910F900FBECA
:101A40000F901F90189594B1906B94B92C9A90E5D3
:101A50009CBD883021F0803211F0823019F491E081
:101A60009DBD01C01DBC803269F028F4883071F042
:101A7000803161F00EC0803429F0803851F48CB58B
:101A800081608CBD8CB582608CBD03C08CB58160DB
:101A90008CBD2C9808958EBD0DB407FEFDCF8EB57C
:101AA00008959F938F937F936F9380ED91E09F9321
:101AB0008F930E94F60E0F900F900F900F900F9043
:101AC0000F9008958BEC91E09F938F930E94F60EF8
:101AD0000F900F9008951F928F9385EC91E09F9344
:101AE0008F930E94F60E0F900F900F900F90089515
:101AF0008EEB91E09F938F930E94F60E0F900F90C4
:101B000008958091DF01813019F41092DF0108956A
:101B10008091DF01811103C081E08093DF0108958E
:101B20001092DB011092DC011092DD011092DE01B7
:101B300016BC8CE787BD82E084BD83E085BDEEE600
:101B4000F0E0808182608083A99A08952FB7F8948D
:101B50006091DB017091DC018091DD019091DE01EB
:101B600022230CF4789408951F920F920FB60F92CF
:101B700011248F939F93AF93BF938091DF018111C5
:101B800013C08091DB019091DC01A091DD01B09147
:101B9000DE010196A11DB11D8093DB019093DC0154
:101BA000A093DD01B093DE01BF91AF919F918F9122
:101BB0000F900FBE0F901F90189597FB072E16F4ED
:101BC000009407D077FD09D00E94320E07FC05D0A3
:101BD0003EF4909581959F4F0895709561957F4F44
:101BE0000895A1E21A2EAA1BBB1BFD010DC0AA1F5E
:101BF000BB1FEE1FFF1FA217B307E407F50720F076
:101C0000A21BB30BE40BF50B661F771F881F991FF0
:101C10001A9469F760957095809590959B01AC0139
:101C2000BD01CF010895052E97FB1EF400940E947C
:101C30002A0E57FD07D00E94F10D07FC03D04EF489
:101C40000C942A0E50954095309521953F4F4F4F5B
:101C50005F4F089590958095709561957F4F8F4F58
:101C60009F4F0895AA1BBB1B51E107C0AA1FBB1FB2
:101C7000A617B70710F0A61BB70B881F991F5A9518
:101C8000A9F780959095BC01CD0108958F929F9200
:101C9000AF92BF92CF92DF92EF92FF92CF93DF93FA
:101CA000EC01688179818A819B81611571058105CB
:101CB000910521F464E279ED8BE597E02DE133EFB6
:101CC00041E050E00E94130E49015A019B01AC0112
:101CD000A7EAB1E40E94AD116B017C01ACEEB4EF58
:101CE000A50194010E94BB11DC01CB018C0D9D1D4F
:101CF000AE1DBF1DB7FF03C00197A109B04888837F
:101D00009983AA83BB839F77DF91CF91FF90EF9058
:101D1000DF90CF90BF90AF909F908F9008950E94DA
:101D2000460E089580E091E00E94460E0895A0E0DE
:101D3000B0E08093000190930101A0930201B09361
:101D400003010895CF93DF93EC012B8120FF33C073
:101D500026FF0AC02F7B2B838E819F8101969F8354
:101D60008E838A8190E029C022FF0FC0E881F9812B
:101D70008081082E000C990B009719F420622B83A8
:101D80001AC03196F983E8830EC0EA85FB85099570
:101D900097FF09C02B81019611F080E201C080E11C
:101DA000822B8B8308C02E813F812F5F3F4F3F8363
:101DB0002E83992702C08FEF9FEFDF91CF91089577
:101DC000A0E0B0E0E6EEFEE00C94D011AE014B5F77
:101DD0005F4FFA0161917191AF018091FB02909187
:101DE000FC020E941C0FE2E00C94EC11A0E0B0E0B9
:101DF000ECEFFEE00C94CE11AE01495F5F4FDA01CB
:101E00006D917D91AD0109EF12E0F801828193811E
:101E1000DC0113962C911397286013962C930E9443
:101E20001C0FD8011296ED91FC9113972381277F07
:101E30002383E4E00C94EA11ABE0B0E0E2E2FFE0DF
:101E40000C94C0116C017B018A01FC01178216827F
:101E5000838181FFCCC1CE0101963C01F6019381C3
:101E6000F70193FD859193FF81917F01882309F408
:101E7000BAC1853239F493FD859193FF81917F0139
:101E8000853229F4B60190E00E941311E7CF912C1E
:101E9000212C312CFFE1F315D8F08B3279F038F496
:101EA000803279F08332A1F4232D20611DC08D3260
:101EB00061F0803369F4232D216016C0832D826088
:101EC000382EE32DE4603E2E2AC0F32DF8601DC0AD
:101ED00037FC2DC020ED280F2A3040F08E32B9F4A7
:101EE00036FC81C1232D2064322E19C036FE06C077
:101EF0008AE0989E200D1124922E11C0EAE02E9EB9
:101F0000200D1124222EF32DF0623F2E08C08C36B6
:101F100021F4832D8068382E02C0883641F4F70101
:101F200093FD859193FF81917F018111B3CF982F0C
:101F30009F7D9554933028F40C5F1F4F9FE3998346
:101F40000DC0833631F0833771F0833509F059C005
:101F500021C0F801808189830E5F1F4F88248394FC
:101F6000912C530113C02801F2E04F0E511CF801CF
:101F7000A080B18036FE03C0692D70E002C06FEF13
:101F80007FEFC5010E9408114C018201F32DFF77FC
:101F90003F2E16C0280122E0420E511CF801A080FD
:101FA000B18036FE03C0692D70E002C06FEF7FEF95
:101FB000C5010E94FD104C01F32DF0683F2E8201F7
:101FC00033FC1BC0822D90E088169906B0F4B60150
:101FD00080E290E00E9413112A94F4CFF50137FCBF
:101FE000859137FE81915F01B60190E00E94131147
:101FF00021102A9421E0821A91088114910471F72A
:10200000E8C0843611F0893641F5F80137FE07C083
:1020100060817181828193810C5F1F4F08C0608154
:102020007181072E000C880B990B0E5F1F4FF32D4B
:10203000FF763F2E97FF09C090958095709561952A
:102040007F4F8F4F9F4FF0683F2E2AE030E0A30173
:102050000E944F11882E861845C0853731F4232DF4
:102060002F7EB22E2AE030E025C0932D997FB92E25
:102070008F36C1F018F4883579F0B5C0803719F083
:10208000883721F0B0C0E92FE061BE2EB4FE0DC04C
:10209000FB2DF460BF2E09C034FE0AC0292F266034
:1020A000B22E06C028E030E005C020E130E002C0DA
:1020B00020E132E0F801B7FE07C0608171818281C2
:1020C00093810C5F1F4F06C06081718180E090E0BA
:1020D0000E5F1F4FA3010E944F11882E8618FB2D03
:1020E000FF773F2E36FE0DC0232D2E7FA22E8914A2
:1020F00058F434FE0BC032FC09C0832D8E7EA82E0E
:1021000005C0B82CA32C03C0B82C01C0B92CA4FE68
:102110000FC0FE01E80DF11D8081803321F49A2D5E
:10212000997EA92E09C0A2FE06C0B394B39404C040
:102130008A2D867809F0B394A3FC11C0A0FE06C0D6
:10214000B21488F4280C922C9B180EC0B21460F4C0
:10215000B60180E290E00E941311B394F7CFB2145D
:1021600018F42B1802C0982C212CA4FE10C0B60124
:1021700080E390E00E941311A2FE17C0A1FC03C0EF
:1021800088E790E002C088E590E0B6010CC08A2D97
:10219000867859F0A1FE02C08BE201C080E2A7FC64
:1021A0008DE2B60190E00E941311891438F4B60153
:1021B00080E390E00E9413119A94F7CF8A94F30180
:1021C000E80DF11D8081B60190E00E94131181108D
:1021D000F5CF222009F442CEB60180E290E00E94C1
:1021E00013112A94F6CFF6018681978102C08FEFF2
:1021F0009FEF2B96E2E10C94DC11FC0105906150FD
:1022000070400110D8F7809590958E0F9F1F08950C
:10221000FC016150704001900110D8F780959095B5
:102220008E0F9F1F08950F931F93CF93DF93FB0192
:10223000238121FD03C08FEF9FEF2CC022FF16C02A
:1022400046815781248135814217530744F4A08188
:10225000B1819D012F5F3F4F318320838C93268175
:1022600037812F5F3F4F3783268314C08B01EC01EA
:10227000FB010084F185E02D0995892BE1F6D80159
:1022800016968D919C911797019617969C938E9315
:102290001697CE01DF91CF911F910F910895FA010A
:1022A000AA27283051F1203181F1E8946F936E7F95
:1022B0006E5F7F4F8F4F9F4FAF4FB1E03ED0B4E086
:1022C0003CD0670F781F891F9A1FA11D680F791FC7
:1022D0008A1F911DA11D6A0F711D811D911DA11DD8
:1022E00020D009F468943F912AE0269F11243019E8
:1022F000305D3193DEF6CF010895462F4770405D83
:102300004193B3E00FD0C9F7F6CF462F4F70405D31
:102310004A3318F0495D31FD4052419302D0A9F78C
:10232000EACFB4E0A6959795879577956795BA9586
:10233000C9F700976105710508959B01AC010A2E4C
:1023400006945795479537952795BA95C9F7620F23
:10235000731F841F951FA01D08950E94F711A59F4C
:10236000900DB49F900DA49F800D911D1124089590
:10237000B7FF0C94AD110E94AD11821B930B089511
:102380002F923F924F925F926F927F928F929F9285
:10239000AF92BF92CF92DF92EF92FF920F931F9373
:1023A000CF93DF93CDB7DEB7CA1BDB0B0FB6F89424
:1023B000DEBF0FBECDBF09942A88398848885F8464
:1023C0006E847D848C849B84AA84B984C884DF80D5
:1023D000EE80FD800C811B81AA81B981CE0FD11DB9
:1023E0000FB6F894DEBF0FBECDBFED010895A29FDA
:1023F000B001B39FC001A39F700D811D1124911DD9
:10240000B29F700D811D1124911D0895F894FFCF86
:1024100001000000010F0000000300000000D50BC8
:102420000D0C000003070707030101010000000075
:102430000101030301011018183C3C381810010178
:1024400001030707426C6F6F64002533307300256A
:10245000333064003435323239383438004C455624
:10246000454C20555000253430730025343064002D
:10247000486967682053636F7265006C6576656CA8
:0A24800000000FDFF03C13351100DF
:00000001FF
